:100000000C9447050C94651B0C943E1B0C946F05D7
:100010000C946F050C946F050C946F050C946F0590
:100020000C946F050C946F050C946F050C946F0580
:100030000C946F050C946F050C946F050C946F0570
:100040000C94F41A0C946F050C946F050C946F05C6
:100050000C946F050C946F050C946F050C946F0550
:100060000C948C1B0C946F0500000000003E5B4F4D
:100070005B3E3E6B4F6B3E1C3E7C3E1C183C7E3C08
:10008000181C577D571C1C5E7F5E1C00183C180016
:10009000FFE7C3E7FF0018241800FFE7DBE7FF30A6
:1000A000483A060E2629792926407F050507407F14
:1000B00005253F5A3CE73C5A7F3E1C1C08081C1C87
:1000C0003E7F14227F22145F5F005F5F06097F017D
:1000D0007F006689956A606060606094A2FFA29468
:1000E00008047E040810207E201008082A1C080836
:1000F0001C2A08081E101010100C1E0C1E0C303884
:100100003E3830060E3E0E06000000000000005F84
:1001100000000007000700147F147F14242A7F2AA0
:100120001223130864623649562050000807030062
:10013000001C2241000041221C002A1C7F1C2A08AE
:10014000083E080800807030000808080808000011
:1001500060600020100804023E5149453E00427F85
:10016000400072494949462141494D331814127FD4
:100170001027454545393C4A494931412111090774
:100180003649494936464949291E000014000000F5
:1001900040340000000814224114141414140041C7
:1001A00022140802015909063E415D594E7C121184
:1001B000127C7F494949363E414141227F414141BC
:1001C0003E7F494949417F090909013E4141517337
:1001D0007F0808087F00417F41002040413F017FA8
:1001E000081422417F404040407F021C027F7F0470
:1001F00008107F3E4141413E7F090909063E4151B9
:10020000215E7F09192946264949493203017F01A8
:10021000033F4040403F1F2040201F3F4038403FA9
:10022000631408146303047804036159494D4300BF
:100230007F4141410204081020004141417F0402F6
:10024000010204404040404000030708002054548D
:1002500078407F284444383844444428384444286B
:100260007F385454541800087E090218A4A49C78BE
:100270007F0804047800447D40002040403D007F1A
:100280001028440000417F40007C047804787C08FA
:100290000404783844444438FC18242418182424CE
:1002A00018FC7C08040408485454542404043F44B3
:1002B000243C4040207C1C2040201C3C4030403CE2
:1002C00044281028444C9090907C4464544C440042
:1002D00008364100000077000000413608000201A6
:1002E0000204023C2623263C1EA1A161123A404092
:1002F000207A38545455592155557941225454780F
:1003000042215554784020545579400C1E527212A7
:100310003955555559395454545939555454580030
:1003200000457C410002457D420001457C407D1234
:1003300011127DF0282528F07C5455450020545496
:100340007C547C0A097F4932494949323A44444441
:100350003A324A4848303A4141217A3A424020787C
:10036000009DA0A07D3D4242423D3D4040403D3C7D
:1003700024FF2424487E4943662B2FFC2F2BFF09A2
:1003800029F620C0887E0903205454794100004496
:100390007D413048484A32384040227A007A0A0A81
:1003A000727D0D19317D2629292F282629292926F4
:1003B00030484D4020380808080808080808382F39
:1003C00010C8ACBA2F102834FA00007B00000814C3
:1003D0002A142222142A14085500550055AA55AA99
:1003E00055AAFF55FF55FF000000FF00101010FF39
:1003F00000141414FF001010FF00FF1010F010F094
:10040000141414FC001414F700FF0000FF00FF1484
:1004100014F404FC141417101F10101F101F1414D0
:10042000141F00101010F0000000001F101010101A
:100430001F10101010F010000000FF10101010100E
:1004400010101010FF10000000FF140000FF00FF4C
:1004500000001F10170000FC04F4141417101714E8
:1004600014F404F40000FF00F7141414141414140A
:10047000F700F7141414171410101F101F1414147D
:10048000F4141010F010F000001F101F0000001FE7
:1004900014000000FC140000F010F01010FF10FF1A
:1004A000141414FF141010101F00000000F010FFAF
:1004B000FFFFFFFFF0F0F0F0F0FFFFFF0000000093
:1004C00000FFFF0F0F0F0F0F3844443844FC4A4A17
:1004D0004A347E02020606027E027E0263554941CC
:1004E000633844443C04407E201E2006027E020203
:1004F00099A5E7A5991C2A492A1C4C7201724C3017
:100500004A4D4D303048784830BC625A463D3E49ED
:100510004949007E0101017E2A2A2A2A2A44445F91
:10052000444440514A444040444A51400000FF0185
:1005300003E080FF000008086B6B08361236243693
:10054000060F090F060000181800000010100030F8
:1005500040FF0101001F01011E00191D1712003C80
:100560003C3C3C0000000000000103070F1F3F7FE0
:100570000080C0E0F0F8FCFEDB40A4A62EAF200017
:10058000A1C8D300408DAED580A800006000000057
:100590000000000000000000000000E0000000007B
:1005A00000000000000000000001E000000000006A
:1005B000000000000000000001F00000000000004A
:1005C0000000000000000003F00000000000000038
:1005D00000000000000007F0000000000000000024
:1005E000000000000007F80000000000000000000C
:1005F000000000000FF800000003C0007E000001B2
:10060000E0007F0FF800000003C000FE000001E0E2
:1006100000FFEFF800000003C000FE000001E00052
:10062000FFFFF800000003C000F00000000F007F93
:10063000FE7FC0000003C000F00000000F003FFE7E
:100640007FF83FF1FBCFFCFEF3BC3DEFE01FFE7FE8
:10065000FF7FFBFFDFFEFEFFBC3DEFE01FC6FFFF9D
:100660007FFBFFDFFEFEFFBC3DEFE00FE3C7FE7840
:100670007BC3DE1EF0FFBC3DEF0007FF87FC787BED
:10068000C3DE1EF0F83C3DEF0001FFFFF0007BC32E
:10069000C01EF0F03C3DEF0001F37FE03FFBC3CF15
:1006A000FEF0F03C3DEF0003E33F807FFBC3DFFE45
:1006B000F0F03C3DEF0007E73C00787BC3DE1EF026
:1006C000F03C3DEF0007FFBE00787BC3DE1EF0F07C
:1006D0003C3DEF0007FFFE00787BC3DE1EF0F03CE0
:1006E0003DEF000FFFFE007FFBFFDFFEF0F03FFD60
:1006F000EFE00FFFFF007FFBFFDFFEF0F03FFDEFBD
:10070000E00FF9FF003E79F9CF9EF0F01F3DE7E0E2
:100710001FF1FF0000000000000000000000001FAB
:1007200080FF007FFFFFFFFFFFFFFFFFFFE01C00D8
:100730007F007FFFFFFFFEB46D888D18E000001F73
:10074000007FFFFFFFFE95AD7DB577E000000F0055
:100750007FFFFFFFFEA5AD9D8D19E0000006007F25
:10076000FFFFFFFEB5ADEDB57EE00000000000012B
:100770008000000000000000000003800000000076
:10078000000000000007C0000000000000000000A2
:1007900007C00000000000000000000FC0000000C3
:1007A0000000000000001FE000000000000000004A
:1007B000001FE00000000000000000003FE000001B
:1007C000000000000000003FF000000000000000FA
:1007D00000007FF0000000000000001FF87FF00024
:1007E0000000000000003FFE7FF00000000000005D
:1007F000003FFF7FF0000000000000001FFFFBE053
:10080000000000000000000FFFF9FFC00000000022
:1008100000000FFFF9FFF800000000000007FFF1E3
:10082000FFFF00000000000003FC73FFFF800000DA
:1008300000000001FE3FFFFF80000000000000FFFD
:100840001E0FFF000000000000007FFE1FFC0000E4
:1008500000000000003FFFFFF80000000000000063
:100860000FDFFFE0000000000000001F19FFC000C4
:100870000000000000003F3CFF00000000000000FE
:10088000007E7CF800000000000000007FFE7C007D
:1008900000000000000000FFFFFC0000000000005E
:1008A0000000FFFFFE0000000000000000FFFFFE50
:1008B0000000000000000001FFEFFE00000000004B
:1008C000000001FFCFFE0000000000000003FF0752
:1008D000FE0000000000000003FC07FE0000000016
:1008E00000000003F003FE00000000000000018093
:1008F00000FE000000000000000000007E0000007C
:10090000000000000000003E0000000000000000A9
:1009100000000C000000000000078000FC00000345
:10092000C0000000078001FC000003C000000007B9
:100930008001FC000003C0000000078001E000000F
:10094000001E000000078001E00000001E007FE3A1
:10095000F79FF9FDE7787BDFC0FFF7FFBFFDFDFFE5
:10096000787BDFC0FFF7FFBFFDFDFF787BDFC0F0C6
:10097000F787BC3DE1FF787BDE00F0F787BC3DE107
:10098000F0787BDE0000F787803DE1E0787BDE00D9
:100990007FF7879FFDE1E0787BDE00FFF787BFFDF3
:1009A000E1E0787BDE00F0F787BC3DE1E0787BDEBC
:1009B00000F0F787BC3DE1E0787BDE00F0F787BC14
:1009C0003DE1E0787BDE00FFF7FFBFFDE1E07FFB6C
:1009D000DFC0FFF7FFBFFDE1E07FFBDFC07CF3F38B
:1009E0009F3DE1E03E7BCFC0000000000000000022
:1009F000000000FFFFFFFFFFFFFFFFFFFFC0FFFF43
:100A0000FFFFFD68DB111A31C0FFFFFFFFFD2B5A0E
:100A1000FB6AEFC0FFFFFFFFFD4B5B3B1A33C0FFDC
:100A2000FFFFFFFD6B5BDB6AFDC0000000002400E0
:100A300027002A0000000000250028002B000000ED
:100A40000000230026002900040404040404040414
:100A50000202020202020303030303030102040869
:100A60001020408001020408102001020408102018
:100A7000000000080002010000030407000000005D
:100A8000000000002200FF210000AB1CF01F112419
:100A90001FBECFEFD8E0DEBFCDBF23E0ACE0B2E0B9
:100AA00001C01D92A333B207E1F712E0A0E0B1E06C
:100AB000EEE3F5E402C005900D92AC30B107D9F732
:100AC00015E0C6E4D5E004C02197FE010E948E2007
:100AD000C534D107C9F70E940A1D0C9492220C94C8
:100AE000000091E09093E0028093DF021092DE021A
:100AF0001092DD0208950895833081F028F481304A
:100B000099F08230A9F008958730A9F08830C9F0B3
:100B10008430B1F4809180008F7D03C0809180008B
:100B20008F7780938000089584B58F7784BD089572
:100B300084B58F7DFBCF8091B0008F778093B0001C
:100B400008958091B0008F7DF9CFCF93DF93282F48
:100B500030E0F901E059F54F8491F901E45AF54F7D
:100B6000D491F901E85BF54FC491CC23A1F0811138
:100B70000E947C05EC2FF0E0EE0FFF1FE25CF54FCA
:100B8000A591B491EC91ED2381E090E009F480E02F
:100B9000DF91CF91089580E090E0FACF1F93CF933B
:100BA000DF93282F30E0F901E059F54F8491F901E6
:100BB000E45AF54FD491F901E85BF54FC491CC2389
:100BC000A9F0162F81110E947C05EC2FF0E0EE0FAA
:100BD000FF1FEC5CF54FA591B4918FB7F894EC91A1
:100BE000111108C0D095DE23DC938FBFDF91CF9128
:100BF0001F910895DE2BF8CFCF93DF9390E0FC0197
:100C0000E45AF54F2491885B954FFC018491882329
:100C1000D1F090E0880F991FFC01E65DF54FA5919A
:100C2000B491FC01EC5CF54FC591D491623071F444
:100C30009FB7F8943C91822F809583238C93E88111
:100C40002E2B28839FBFDF91CF9108958FB7F89403
:100C5000EC912E2B2C938FBFF6CF3FB7F894809159
:100C6000880290918902A0918A02B0918B0226B5E8
:100C7000A89B05C02F3F19F00196A11DB11D3FBFD4
:100C8000BA2FA92F982F8827BC01CD01620F711DA3
:100C9000811D911D42E0660F771F881F991F4A959D
:100CA000D1F708958F929F92AF92BF92CF92DF9229
:100CB000EF92FF924B015C010E942D066B017C01BB
:100CC0000E942D066C197D098E099F09683E7340AC
:100CD00081059105A8F321E0821A9108A108B108C5
:100CE00088EEC80E83E0D81EE11CF11C811491042B
:100CF000A104B10429F7FF90EF90DF90CF90BF904F
:100D0000AF909F908F9008952FB7F89460918402D0
:100D10007091850280918602909187022FBF08957D
:100D2000089508950895AF92BF92CF92DF92EF9207
:100D3000FF920F931F93CF93DF936C017B018B0185
:100D4000040F151FEB015E01AE18BF08C017D107D5
:100D500059F06991D601ED91FC910190F081E02D5F
:100D6000C6010995892B79F7C501DF91CF911F91B4
:100D70000F91FF90EF90DF90CF90BF90AF900895CC
:100D8000EF92FF920F931F93CF93DF93EC01EC80D0
:100D9000FD806E157F050CF070C057FF04C0240F56
:100DA000351F50E040E08E819F81FA01E20FF31F72
:100DB0008E179F071CF49C01241B350B121613067B
:100DC0000CF05BC0922F842F8695869586958E9D1C
:100DD000D0018F9DB00D11246A0F7B1FAF8DB8A17C
:100DE000A60FB71F477049F188E0841B482F682F72
:100DF00070E0FB01E059FA4FE491281708F063C056
:100E0000621B71092FEF30E002C0359527956A9576
:100E1000E2F7E2230130110539F0B0F1023011059B
:100E200061F58C91E82702C08C91E82BEC93941724
:100E300020F12C813D81A20FB31FE92FE41BE83084
:100E400078F00230110521F58E2F9C9190959C939E
:100E50002C813D81A20FB31F88508830B0F7E77016
:100E6000EE2359F0F0E0E859FA4FE4910130110512
:100E7000F9F010F10230110519F1DF91CF911F91B6
:100E80000F91FF90EF900895E0958C91E823CECFDD
:100E900081E00115110509F480E081959E2F8C9366
:100EA0002C813D81A20FB31F98509830C0F7D7CF47
:100EB0008C91E82BEC93E1CFE0958C91E823FACF6D
:100EC0008C91E827F7CF0130110509F4ADCFE0F29E
:100ED0000230110509F4A5CFAE0DBF1DAECF0F93A3
:100EE0001F93CF93DF9377FF04C0260F371F70E067
:100EF00060E0DC011496CD91DC91FB01E20FF31F61
:100F0000CE17DF071CF49E01261B370B12161306A3
:100F10004CF5FA0157FD3796A3E0F595E795AA95AC
:100F2000E1F7EC9FD001ED9FB00DFC9FB00D1124B7
:100F30006A0F7B1FDC015F96ED91FC91E60FF71FB6
:100F40004770552781E090E001C0880F4A95EAF785
:100F5000482F0130110559F0A8F02E0F3F1F023025
:100F60001105E1F0DF91CF911F910F9108952E0FA0
:100F70003F1FE217F307B1F38191DF011197842B33
:100F80008C93F7CF80952E0F3F1FE217F30751F395
:100F90009191DF01119798239C93F7CFE217F30704
:100FA00009F38191DF01119784278C93F7CF0F9379
:100FB0001F93FA01DC0156964C9156974230E9F0A6
:100FC0004330A1F1413061F514964D915C91DA0105
:100FD000AE1BBF0BFD01E21BF30B77FD0BC0DC0169
:100FE00016964D915C916417750724F4AB01BF010F
:100FF0000E946F071F910F91089514964D915C9177
:10100000DA01A61BB70BBD0161507109DC01169610
:101010004D915C91DA01AE1BBF0BFD01E21BF30B9E
:1010200077FDE8CFAF010E94C006E4CF16964D9140
:101030005C91DA01A61BB70BBD0161507109CDCFE0
:101040000F931F93FA01DC0156964C91569742304C
:10105000A9F0433091F1413019F514964D915C910E
:10106000DA01AE1BBF0BFD013197F7FD04C0AB01E8
:10107000BF010E94C0061F910F91089514964D91D3
:101080005C91DA01A61BB70BBD01DC0116964D91F0
:101090005C91DA01AE1BBF0BFD013197621B730B34
:1010A000F7FDE9CFDC0116964D915C91E417F50749
:1010B00014F7AF010E946F07DECF16964D915C9139
:1010C000DA01A61BB70BBD01621B730BCECFFC016F
:1010D00077FD64C080859185681779070CF05EC044
:1010E00057FD5CC082859385481759070CF056C0A0
:1010F00086898230B1F0833029F1813041F48481D6
:101100009581841B950BAB01BC01615071092130A5
:10111000310509F108F443C02230310509F463C0F8
:10112000089584819581DC01A61BB70BBD01615038
:10113000710986819781DC01A41BB50BAD0141507B
:101140005109E5CF86819781861B970BBA01AC01C7
:1011500041505109DCCFCA0157FD0796A3E0959590
:101160008795AA95E1F7A481B5818A9F90018B9F0D
:10117000300D9A9F300D1124620F731F078CF0A160
:10118000E02DE60FF71F4770552721E030E001C042
:10119000220F4A95EAF78081822B80830895CA0145
:1011A00057FD079633E0959587953A95E1F7A48129
:1011B000B5818A9F90018B9F300D9A9F300D11242D
:1011C000620F731F078CF0A1E02DE60FF71F477029
:1011D000552781E090E001C0880F4A95EAF7809595
:1011E00090818923DACFCA0157FD079623E09595B0
:1011F00087952A95E1F7A481B5818A9F90018B9FFD
:10120000300D9A9F300D1124620F731F078CF0A1CF
:10121000E02DE60FF71F4770552721E030E001C0B1
:10122000220F4A95EAF780818227B7CF08958EBDB5
:1012300000000DB407FEFDCF8EB508958CBD9DBD99
:1012400008950895FC016370668B848195812681E1
:101250003781613039F0633029F091878087338797
:1012600022870895318720879387828708952F9258
:101270003F924F925F926F927F928F929F92AF9226
:10128000BF92CF92DF92EF92FF920F931F93CF9373
:10129000DF93CDB7DEB76A970FB6F894DEBF0FBE07
:1012A000CDBF9A8F898F7A8369834A01D22E18879E
:1012B0000F833701BC2CDC0159962D913C915A9734
:1012C0002115310509F015C118968D919C9119973A
:1012D000681779070CF0D7C11A968D919C91481721
:1012E00059070CF0D0C14C2C512CB6E0CB9E600DB0
:1012F000711D11247C876B87161617060CF0C3C16D
:10130000EA2DF0E0FA87E98793E0EE0FFF1F9A9548
:10131000E1F7F88BEF87CF01840F951F1816190698
:101320000CF0B1C1A98DBA8D58968C91811104C071
:10133000BFEABD1508F4D394A98DBA8DED91FC9147
:1013400011970284F385E02DCD010995B5E0DB9E70
:10135000C0011124E981FA81FC83EB83312C212C1B
:101360009C0128593F4F388F2F8B4A2D50E05E8BC0
:101370004D8BEF89F88DE20DF31D44919E828D8295
:10138000D12CC12C69817A81620D731D7A8B698B96
:10139000842F90E09C8B8B8BE98DFA8DA081B1819D
:1013A00040FF82C0F1E0BF126FC0AF126DC01C964B
:1013B000ED91FC912F813885A4014C0D5D1D69894B
:1013C0007A89898D9A8D0995EB89FC89F595E79540
:1013D0004E2F5FEFC51AD50A6D817E818D899E895A
:1013E000680F791F7E836D8398E0C916D10481F65A
:1013F000AFEF2A1A3A0AEB81FC81E40DF51DFC835C
:10140000EB83F5E02F16310409F0B3CF2F81388537
:1014100026153705B9F0A98DBA8DED91FC91B1E093
:10142000BB1257C0AB1255C069817A816B5F7F4F89
:101430000088F189E02D830128E030E0A401898D46
:101440009A8D0995A98DBA8DED91FC911197068819
:10145000F789E02DCD016A960FB6F894DEBF0FBE76
:10146000CDBFDF91CF911F910F91FF90EF90DF9053
:10147000CF90BF90AF909F908F907F906F905F9034
:101480004F903F902F9009941E96ED91FC91EF8024
:10149000F88409851A8592014D815E816B817C817A
:1014A000898D9A8D099590CF2F813885261537051E
:1014B00009F48ACF31E0B31207C0A31205C01C960D
:1014C000ED91FC91930178CF1E96ED91FC91730103
:1014D000E0CF6B857C85641975090684F785E02D5E
:1014E00073010F8518899201A401898D9A8D099540
:1014F000A9CFF90134969491329745915491D91A14
:10150000B7E0DB9E400D511D1124F9012591349166
:101510003C8B2B8BFA0125903490FA013296749013
:1015200031963491398B329664903196449041E0F3
:101530004C1518F04A1508F07FC0662D062C000CDB
:10154000770B7C836B83842D042C000C990B9E837A
:101550008D83A98DBA8DED91FC9111970284F3854D
:10156000E02DCD010995512CD12CC12CEA2DF0E0B4
:10157000FA87E9872B2D30E03C872B87A401440DA7
:10158000511D47FC5A95588F4F8B69817A81660DA2
:10159000711D67FC7A957E876D877989C71608F07B
:1015A00051CF2C2D30E04D815E81420F531FA98514
:1015B000BA854A9FC0014B9F900D5A9F900D1124F0
:1015C000FC01E80DF91DF88BEF87852D612C4F8903
:1015D000588D420F531F5E8B4D8B671408F050C01F
:1015E00044244394480E877041F4C1010196EB896D
:1015F000FC89E20DF31DD4901C01D7FE19C0A98D02
:10160000BA8DED91FC91662D70E0B1E0BB1219C06E
:10161000AB1217C02D853E85620F731F0484F585BC
:10162000E02D2F8138854D895E89898D9A8D0995A8
:10163000DD0C6394842DD1CF1E821D821C821B82FF
:1016400088CF4B815C81640F751FAB85BC856A9F19
:10165000C0016B9F900D7A9F900D112469817A8152
:10166000680F791F0684F785E02DEF80F8840985DF
:101670001A859D014F855889898D9A8D0995D8CFF6
:10168000570CC3948ACF6A960FB6F894DEBF0FBE8C
:10169000CDBFDF91CF911F910F91FF90EF90DF9021
:1016A000CF90BF90AF909F908F907F906F905F9002
:1016B0004F903F902F9008958F929F92AF92CF922C
:1016C000EF92FF920F931F93CF93DF93EC01262F9E
:1016D000898D9A8D009709F051C06A30D1F41D862A
:1016E0001C868D8948E0849F900111248E859F85FA
:1016F000820F931F9F878E8781E090E0DF91CF91CB
:101700001F910F91FF90EF90CF90AF909F908F908F
:1017100008956D3089F3CC88AD888F898823C1F016
:101720008C859D8536E0C39E800D911D11244885D2
:1017300059854817590764F44E855F851D861C86B8
:1017400038E0A39EC0011124840F951F9F878E87C8
:10175000EA88FB88088919894E855F856C857D85B7
:10176000CE010E9437092C898C859D8546E0249FF7
:10177000800D911D11249D878C87BECF6A3069F43E
:101780001D861C86FC013896E4912D898E859F85E7
:10179000E29F800D911D1124ADCF6D3009F4ACCFC7
:1017A000FC0134963491631708F4A6CF3296E49185
:1017B000E61708F4A1CFFC01329685909490462F4D
:1017C000431B342F47E0349F800C911C1124F401FB
:1017D000329634913196E4913323A9F1EE2399F1B5
:1017E000CC88F4013596E491AD884F89442301F10A
:1017F0000E2E000CFF0BE30FF11DCE9EA001CF9E1D
:10180000500D11246C857D85460F571F688579859D
:10181000641775076CF44E855F851D861C86FC0178
:101820003896E491AE9E400D511D11245F874E877E
:10183000EA88FB88088919894E855F856C857D85D6
:10184000CE010E943709F4013496E4912C898C85ED
:101850009D85E29F800D911D11248DCF6F927F9207
:101860008F929F92AF92BF92CF92DF92EF92FF92B0
:101870000F931F93CF93DF93EC016B015A01390152
:101880004801E881F9810284F385E02D0995E8811A
:10189000F9810288F389E02D87019301A501B60142
:1018A000CE010995A501480D591D41505109E88106
:1018B000F9810288F389E02D9301B601CE010995E3
:1018C000E881F9810088F189E02D9401A501B60134
:1018D000CE010995C60CD71CB60161507109E8818B
:1018E000F9810088F189E02D9401A501CE010995C7
:1018F000E881F9810688F789E02DCE01DF91CF914B
:101900001F910F91FF90EF90DF90CF90BF90AF901D
:101910009F908F907F906F9009946F927F928F929B
:101920009F92AF92BF92CF92DF92EF92FF920F936E
:101930001F93CF93DF935C01EB016A0149013801EA
:101940008701DC01ED91FC916217730719F56416AC
:1019500075062CF0962D872D3A01C92ED82E9601AA
:10196000261937092F5F3F4F048CF58DE02DA30119
:10197000BE01C5010995DF91CF911F910F91FF9095
:10198000EF90DF90CF90BF90AF909F908F907F901F
:101990006F9008954615570591F42617370724F0E0
:1019A000892D4B01C22FD82F9E01281939092F5F8D
:1019B0003F4F068CF78DE02DA601B401DACF0284EB
:1019C000F385E02D0995D501ED91FC910488F58909
:1019D000E02D83019401A601BE01C5010995D50141
:1019E000ED91FC910688F789E02DC501DF91CF913B
:1019F0001F910F91FF90EF90DF90CF90BF90AF902D
:101A00009F908F907F906F900994EF92FF920F9329
:101A10001F93DC011A960D911C911B9718962D911E
:101A20003C911997ED91FC9100A0F1A1E02D7B0173
:101A300050E040E070E060E009951F910F91FF9049
:101A4000EF9008954F925F926F927F928F929F9244
:101A5000AF92BF92CF92DF92EF92FF920F931F93BC
:101A6000CF93DF936C012B015A0139014801DC014E
:101A7000ED91FC910284F385E02D0995E201640C5F
:101A8000751CD601ED91FC91C615D7055CF4008854
:101A9000F189E02D87019401A501BE01C6010995D8
:101AA0002196EFCF0688F789E02DC601DF91CF910F
:101AB0001F910F91FF90EF90DF90CF90BF90AF906C
:101AC0009F908F907F906F905F904F9009948F922E
:101AD0009F92AF92BF92CF92DF92EF92FF920F93BD
:101AE0001F93CF93DF93EC015B014A016901E88109
:101AF000F9810284F385E02D099595012C0D3D1D9A
:101B000021503109E881F9810488F589E02D7801B7
:101B10008401A401B501CE010995E881F981068807
:101B2000F789E02DCE01DF91CF911F910F91FF90AA
:101B3000EF90DF90CF90BF90AF909F908F900994DF
:101B40008F929F92AF92BF92CF92DF92EF92FF92CD
:101B50000F931F93CF93DF93EC015B014A0169015F
:101B60007801E881F9810284F385E02D0995C80C9C
:101B7000D91C860101501109E881F9810488F58991
:101B8000E02D9501A401B501CE010995E881F98107
:101B90000688F789E02DCE01DF91CF911F910F913B
:101BA000FF90EF90DF90CF90BF90AF909F908F907D
:101BB0000994EF92FF920F931F93DC01ED91FC913A
:101BC00000A0F1A1E02D09951F910F91FF90EF90DA
:101BD00008950F931F93DC01ED91FC91068CF78D16
:101BE000E02D09951F910F9108950F931F93DC012C
:101BF000ED91FC91048CF58DE02D09951F910F91CD
:101C00000895DC01ED91FC910084F185E02D0994AB
:101C10003F924F925F926F927F928F929F92AF927C
:101C2000BF92CF92DF92EF92FF920F931F93CF93C9
:101C3000DF935C017B014A016901390187E0680E8D
:101C4000711C93E0759467949A95E1F72B01400E0F
:101C5000511E10E000E0312CD0E0C0E0CE018770D2
:101C60009927330C892B59F4FE0183E0F595E7950C
:101C70008A95E1F7E00FF11FE80DF91D349037FE6A
:101C80000AC021E030E0A701B5016C0F7D1F8DEE89
:101C900092E00E94010E2196CC16DD06F9F68FEF38
:101CA000E81AF80A060D171DE414F504A9F6DF91E9
:101CB000CF911F910F91FF90EF90DF90CF90BF9049
:101CC000AF909F908F907F906F905F904F903F90DC
:101CD00008952F923F924F925F926F927F928F92D0
:101CE0009F92AF92BF92CF92DF92EF92FF920F93AB
:101CF0001F93CF93DF9300D000D000D0CDB7DEB7D5
:101D00003C016A013E832D83FC82EB825801A41AB8
:101D1000B50AB7FE03C0B194A194B1088D809E802E
:101D2000861A970A97FE03C09194819491088A14A9
:101D30009B045CF0902F812F0D811E819D838E83EB
:101D40009C2D8D2D6B01692F782F0C151D055CF0D6
:101D50009D818E817E836D83692F782F902F812FB7
:101D60008601C92ED82E1601201A310A2B012D8189
:101D70003E81421A530A57FE03C0519441945108C0
:101D8000710137FE03C03FEFE31AF30AF594E794BD
:101D90008D819E81861797075CF5A1E0B0E0BA833C
:101DA000A983C016D1064CF1D301ED91FC910484B6
:101DB000F585E02D2B813C81A8016D817E818A14FF
:101DC0009B041CF04D815E81B801C3010995E418A4
:101DD000F508F7FE0AC02D813E8189819A81280F7E
:101DE000391F3E832D83E20CF31C0F5F1F4FD9CFA9
:101DF0002FEF3FEF3A832983D4CF26960FB6F8947E
:101E0000DEBF0FBECDBFDF91CF911F910F91FF902D
:101E1000EF90DF90CF90BF90AF909F908F907F908A
:101E20006F905F904F903F902F900895089520916C
:101E30005902260F3327331F21323105ECF420914C
:101E4000B502FC0190E080E0243069F082E0089562
:101E5000A09159022191AC01475C5D4FA40FB52FB1
:101E6000B11D2C930196861798F380915902680F43
:101E70006093590280E0089581E008951092B502C0
:101E800081E08093B4021092AF0261E082E10E948F
:101E9000CE0561E083E10E94CE05E9EBF0E08081B0
:101EA0008E7F808380818D7F808388E48093B800DB
:101EB00085E48093BC000895CF93DF9391E09093E5
:101EC00038028823B9F0C091B800D091BA0080914F
:101ED000BC008A7B8093BC0060E082E10E94CE055A
:101EE00060E083E10E94CE050E943E0FD093BA00CD
:101EF000C093B800DF91CF910895E091BC0280912A
:101F0000BB02E81730F4F0E0E354FD4F808190E02D
:101F100008958FEF9FEF08959091BC028091BB02CE
:101F20002FEF3FEF981748F4E92FF0E0E354FD4F0F
:101F3000208130E09F5F9093BC02C9010895809199
:101F4000BB029091BC02891B990B0895CF92DF923E
:101F5000EF92FF920F931F93CF93DF937C01CB01FE
:101F60008A012091E002222389F0EB016B01C40E6B
:101F7000D51ECC15DD0569F06991D701ED91FC9175
:101F80000190F081E02DC7010995F3CF642F0E94E5
:101F9000170FC801DF91CF911F910F91FF90EF9024
:101FA000DF90CF900895CF93DF931F92CDB7DEB728
:101FB00069832091E0022223F9F02091DD02203292
:101FC00058F021E030E0FC013383228390E080E090
:101FD0000F90DF91CF9108958091DE02E82FF0E01D
:101FE000E85EFD4F998190838F5F8093DE0280933E
:101FF000DD0281E090E0ECCF61E0CE0101960E942D
:10200000170FF7CFCF92DF92EF92FF920F931F93AC
:10201000CF93DF93D091DD0281E0D13208F09CC0F4
:10202000C091DF020E942D066B017C018091B502F8
:1020300081116CC082E08093B50281E08093B4028C
:102040008FEF8093B3021092B202D093B102A8E155
:10205000B2E0EFE8F2E080E0D8138DC01092B00259
:102060008091B002CC0FC82BC093B0028091AF0218
:10207000813009F084C01092AF020E942D066B01DE
:102080007C018091B0028093BB008091B702909157
:10209000B802A091B902B091BA02892B8A2B8B2B7E
:1020A000A1F00E942D060091B7021091B802209174
:1020B000B9023091BA026C197D098E099F09061781
:1020C00017072807390708F442C08091BC0083FD38
:1020D000D8CF85EC8093BC000E942D066B017C015B
:1020E0008091B502823009F44CC08091B3028F3FD9
:1020F00009F469C08091B302803209F466C080910E
:10210000B302803309F463C084E026C08091B70233
:102110009091B802A091B902B091BA02892B8A2B92
:102120008B2B09F483CF0E942D060091B7021091EA
:10213000B8022091B9023091BA026C197D098E095A
:102140009F09061717072807390708F06FCF8091F6
:10215000B6020E945C0F85E01092DE021092DD0252
:102160001092E002DF91CF911F910F91FF90EF90BD
:10217000DF90CF9008959D9191938F5F6DCF85EE05
:10218000A9CF8091B7029091B802A091B902B09105
:10219000BA02892B8A2B8B2B09F4A2CF0E942D0621
:1021A0000091B7021091B8022091B9023091BA02A1
:1021B0006C197D098E099F0906171707280739072B
:1021C00008F08ECFC4CF80E0C7CF82E0C5CF83E0D8
:1021D000C3CFEF92FF920F931F93CF937C01C62F33
:1021E00080910A0390910B03892B09F44EC08091D2
:1021F0000E030E94710580910A0390910B03DC018C
:10220000ED91FC910190F081E02D60E0099587014E
:10221000EE24E394F12CC15080910A0390910B03BA
:10222000CF3F61F1B0E2EB16F104A8F00E9402107A
:1022300080910E030E94710580910A0390910B0317
:10224000DC01ED91FC910190F081E02D60E00995B9
:10225000EE24E394F12C80910A0390910B03F80192
:102260006491DC01ED91FC910190F081E02D0995E4
:10227000BFEFEB1AFB0A0F5F1F4FCDCFCF911F911E
:102280000F91FF90EF900C940210E0911A03F091DF
:102290001B0390818091200380958923808387018F
:1022A000C15008F438C0F80184912091080330919E
:1022B0000903232B29F00E9417090F5F1F4FF0CF4E
:1022C00028E030E040E8E0911603F0911703909188
:1022D0001E03582F5423D9F05081952B9083E09101
:1022E0001803F0911903908150911F03952B90834F
:1022F000E0911803F0911903508190911F0390957C
:1023000095239083469521503109E9F6D6CF508127
:1023100090959523E3CFCF911F910F91FF90EF9070
:1023200008951F93CF93DF93EC018D8D9E8D892BA4
:10233000F9F0162F89A10E9471058D8D9E8DDC010B
:10234000ED91FC910190F081E02D60E009958D8D7B
:102350009E8DDC01ED91FC910190F081E02D612FCB
:1023600009958D8D9E8DDF91CF911F910C94021058
:10237000ADA5BEA59C918BA9809589238C938B8D4F
:102380009C8D892B31F0862FDF91CF911F910C947A
:10239000170928E030E080E8A9A5BAA599A9462F39
:1023A0004823C1F04C91942B9C93ABA5BCA59C9168
:1023B0004AA9942B9C93ABA5BCA54C919AA9909546
:1023C00094239C9386952150310931F7DF91CF9169
:1023D0001F9108954C9190959423E6CFEF92FF9230
:1023E0000F931F93CF93DF9380910A0390910B0378
:1023F000892B09F48DC02091220330912303409151
:1024000024035091250360E074E284EF90E00E9481
:102410002920205131094109510956954795379591
:1024200027952093B80065E084E89AE00E94E910BF
:102430006091F10261508DEE92E00E949111209125
:10244000F3023091F402C901079697FD079633E035
:10245000959587953A95E1F72091F1023091F20236
:10246000829F8001839F100D929F100D1124C091B7
:102470000C03D0910D0380910A0390910B030C0F74
:102480001D1F892B09F483C080910E030E947105E2
:1024900080910A0390910B03DC01ED91FC91019076
:1024A000F081E02D60E40995EE24E394F12C809115
:1024B0000A0390910B030C171D0709F440C0B0E20A
:1024C000EB16F104A8F00E94021080910E030E9406
:1024D000710580910A0390910B03DC01ED91FC9151
:1024E0000190F081E02D60E40995EE24E394F12C55
:1024F00080910A0390910B036991DC01ED91FC91AD
:102500000190F081E02D0995BFEFEB1AFB0ACFCFC8
:102510008091080390910903892B31F080912B035E
:1025200090912C030E941E09E0911C03F0911D0361
:1025300090818091210380958923808374CF0E94AC
:10254000021080910A0390910B03892B09F460C05B
:1025500020912603309127034091280350912903AD
:1025600060E074E284EF90E00E942920205131095C
:102570004109510956954795379527952093B800FD
:10258000DF91CF911F910F91FF90EF900895E0910F
:102590001A03F0911B03808190912003892B808383
:1025A0000C171D0771F289912091080330910903DE
:1025B000232B19F00E941709F3CF28E030E040E800
:1025C000E0911603F091170390911E03582F5423A6
:1025D000D9F05081952B9083E0911803F091190365
:1025E000908150911F03952B9083E0911803F091F7
:1025F0001903508190911F039095952390834695E0
:1026000021503109E9F6CCCF508190959523E3CF45
:10261000E0911C03F0911D03808190912103892B8F
:102620008083AECF1F93CF93DF93EC01162F8D8D58
:102630009E8D892BB1F12DA93EA94FA958AD60E01F
:1026400074E284EF90E00E94292020513109410971
:10265000510956954795379527952093B80066EA16
:10266000111167EACE010E9491118D8D9E8D892BEB
:1026700041F129AD3AAD4BAD5CAD60E074E284EF61
:1026800090E00E94292020513109410951095695B5
:102690004795379527952093B800DF91CF911F91EB
:1026A00008958B8D9C8D892B21F08EAD9FAD0E945E
:1026B0001E09EFA5F8A990818CA9809589238083B4
:1026C000CECFEFA5F8A980819CA9892B8083E5CF87
:1026D00090E080E00895DC01ED91FC910190F081A3
:1026E000E02D09940F931F93CF93DF9382E00E9414
:1026F000A505EC010E94840600910E0210910F02C4
:102700002091100230911102601B710B820B930B10
:102710006B3F71058105910598F080910D02811143
:102720000FC0209769F40E94840660930E02709394
:102730000F02809310029093110281E080930D02AA
:102740000E94840600910E0210910F022091100247
:1027500030911102601B710B820B930B6536710572
:1027600081059105B8F080910D02882399F0CD2B59
:1027700089F08DE895E19093820280938102109216
:102780001202E89882E996E090930101809300019B
:1027900010920D02DF91CF911F910F910895CF926A
:1027A000DF92EF92FF920F931F930E942D066B0111
:1027B0007C018091B502811163C081E08093B502F4
:1027C0008093B4029FEF9093B3021092B2021092E2
:1027D000B1028093B0028091B002806D8093B0020C
:1027E0008091AF02813009F07CC01092AF020E944C
:1027F0002D066B017C018091B0028093BB0080911B
:10280000B7029091B802A091B902B091BA02892B97
:102810008A2B8B2BA1F00E942D060091B7021091FC
:10282000B8022091B9023091BA026C197D098E0963
:102830009F09061717072807390708F442C0809137
:10284000BC0083FDD8CF85EC8093BC000E942D0690
:102850006B017C018091B502813009F444C0809104
:10286000B202811162C08091B202AFE8B2E0EDEB3A
:10287000F2E090E0981751F12D9121939F5FFACFEC
:102880008091B7029091B802A091B902B091BA02BA
:10289000892B8A2B8B2B09F48CCF0E942D0600915B
:1028A000B7021091B8022091B9023091BA026C19A6
:1028B0007D098E099F09061717072807390708F0B1
:1028C00078CF8091B6020E945C0F80E01092BC022B
:1028D0008093BB021F910F91FF90EF90DF90CF90FC
:1028E000089585EEB1CF8091B7029091B802A09182
:1028F000B902B091BA02892B8A2B8B2B09F4AACF8B
:102900000E942D060091B7021091B8022091B902E1
:102910003091BA026C197D098E099F0906171707B5
:102920002807390708F096CFCCCF81E09ECF88E604
:102930000E94710566E070E080912D0390912E0356
:102940000E946B1380912D0390912E030E94021020
:1029500080912D0390912E030E94CF1380912D031F
:1029600090912E03DC01ED91FC910284F385E02D22
:102970000995982F92959F708F70BAE09B9F800D5C
:102980001124089588E60E94710565E070E0809149
:102990002D0390912E030E946B1380912D03909133
:1029A0002E030E94021080912D0390912E030E940D
:1029B000CF1380912D0390912E03DC01ED91FC91BA
:1029C0000284F385E02D0995982F991F9927991F67
:1029D00090938E02982F929597708F70BAE09B9F7C
:1029E000800D1124089588E60E94710564E070E06E
:1029F00080912D0390912E030E946B1380912D03E3
:102A000090912E030E94021080912D0390912E032D
:102A10000E94CF1380912D0390912E03DC01ED9144
:102A2000FC910284F385E02D0995982F92959F7073
:102A30008F70BAE09B9F800D1124089588E60E9454
:102A4000710561E070E080912D0390912E030E944A
:102A50006B1380912D0390912E030E9402108091A0
:102A60002D0390912E030E94CF1380912D039091FE
:102A70002E03DC01ED91FC910284F385E02D099594
:102A8000982F92959F708F70BAE09B9F800D1124B4
:102A9000089588E60E94710562E070E080912D0340
:102AA00090912E030E946B1380912D0390912E0321
:102AB0000E94021080912D0390912E030E94CF134B
:102AC00080912D0390912E03DC01ED91FC91028405
:102AD000F385E02D099521E0AC014074552786FF70
:102AE00020E020938D02282F22952F70382F3F70E1
:102AF000452B61F085FB992790F990938C0221700A
:102B0000832FBAE02B9F800D112408952370832F0B
:102B10009AE0299F800D11240895CF93DF930E949E
:102B20004915C3E1D2E088830E941E1589830E9463
:102B3000F3148A830E94C2148B830E9497148C839F
:102B40008FE296E19093820280938102DF91CF9190
:102B50000895FC0101900020E9F73197AF01481B6F
:102B6000590BBC018DEE92E00C9493068F929F92CC
:102B7000AF92BF920F931F93CF93DF93CDB7DEB782
:102B8000A1970FB6F894DEBF0FBECDBF19A2423099
:102B900008F44AE08E010F5D1F4F842E912CB12C5A
:102BA000A12CA50194010E942920E62FB901CA0198
:102BB000EA30F4F4E05DD801EE938D01232B242B51
:102BC000252B79F790E080E0109719F0CD010E9455
:102BD000A915A1960FB6F894DEBF0FBECDBFDF9149
:102BE000CF911F910F91BF90AF909F908F900895BC
:102BF000E95CE1CFCF93DF93BC01990F880B990B70
:102C00004AE00E94B615EC0180EC91E00E94A91503
:102C10008C0F9D1FDF91CF9108950C94A9152091E1
:102C2000F3023091F402C901079697FD079623E05D
:102C3000959587952A95E1F72091F1023091F2025E
:102C4000829FA001839F500D929F500D112470E030
:102C500060E080910C0390910D030C948422CF923C
:102C6000DF92EF92FF921F93CF93DF930E940F1694
:102C70008EE090E09093FA028093F9021092FC02A9
:102C80001092FB0281E0809301038093020383ECA6
:102C900091E00E940D1680EC91E00E94A9158091B0
:102CA0001202823009F48DC208F09BC0882309F417
:102CB0006AC2813009F479C20E94EE1182E00E945A
:102CC000A505EC010E948406C0900E02D0900F0270
:102CD000E0901002F09011026C197D098E099F0995
:102CE000653671058105910598F080910D0281117D
:102CF0000FC0209769F40E94840660930E027093BF
:102D00000F02809310029093110281E080930D02D4
:102D10000E948406C0900E02D0900F02E090100234
:102D2000F09011026C197D098E099F0965367105B5
:102D30008105910568F080910D02882349F0CD2B23
:102D400039F0809112028F5F8093120210920D026F
:102D500083E00E94A505EC010E9484066C197D09A0
:102D60008E099F09653671058105910598F080915E
:102D70000C0281110FC0209769F40E9484066093B1
:102D80000E0270930F02809310029093110281E063
:102D900080930C020E948406C0900E02D0900F0215
:102DA000E0901002F09011026C197D098E099F09C4
:102DB000653671058105910508F4DDC180910C022D
:102DC000882309F4D8C1CD2B09F4D5C1E0911202B2
:102DD000F0E0ED5EFD4F80818F5F808310920C02EA
:102DE000CAC1843009F413C208F4F7C1853009F070
:102DF00063CF82E793E1909301018093000180917A
:102E000069008C7F816080936900E89A88E60E945F
:102E1000710562E070E080912D0390912E030E9475
:102E20006B1380912D0390912E030E9402108091CC
:102E30002D0390912E030E94CF1380912D0390912A
:102E40002E03DC01ED91FC910284F385E02D0995C0
:102E5000C82F88E60E94710562E070E080912D0322
:102E600090912E030E946B1380912D0390912E035D
:102E70006C2F6F7BDC01ED91FC910190F081E02DD6
:102E8000099580912D0390912E030E94021080914C
:102E9000170264E60E948220C92F88E60E9471050D
:102EA00066E070E080912D0390912E030E946B13D9
:102EB000A0912D03B0912E03DAE08C2F6D2F0E948C
:102EC00082208295807F682F690FED91FC91119788
:102ED0000190F081E02DCD01099580912D03909115
:102EE0002E030E940210809116026CE00E94822044
:102EF000C92F88E60E94710565E070E080912D037E
:102F000090912E030E946B13A0912D03B0912E037C
:102F10008C2F6D2F0E9482208295807F682F690FF1
:102F2000ED91FC9111970190F081E02DCD01099573
:102F300080912D0390912E030E9402108091150222
:102F40006FE10E948220C92F88E60E94710564E02B
:102F500070E080912D0390912E030E946B13A0913D
:102F60002D03B0912E038C2F6D2F0E94822082950D
:102F7000807F682F690FED91FC9111970190F0818E
:102F8000E02DCD01099580912D0390912E030E9493
:102F900002108091130268E10E948220C92F192F2C
:102FA00088E60E94710562E070E080912D039091A7
:102FB0002E030E946B1380912D0390912E030E948B
:102FC000021080912D0390912E030E94CF138091C7
:102FD0002D0390912E03DC01ED91FC910284F38589
:102FE000E02D099586FF1FC121E0CC3008F420E0D8
:102FF000CC3010F014EF1C0F111101C01CE0812F18
:103000006AE00E9482208295807F980FC22FD0E0D4
:1030100085E0CC0FDD1F8A95E1F7C064C92B88E6F7
:103020000E94710562E070E080912D0390912E0363
:103030000E946B1380912D0390912E03DC01ED9182
:10304000FC910190F081E02D6C2F099580912D036A
:1030500090912E030E940210809114026CE30E9452
:103060008220C92F88E60E94710561E070E080919E
:103070002D0390912E030E946B13A0912D03B0910C
:103080002E038C2F6AE00E9482208295807F682F19
:10309000690FED91FC9111970190F081E02DCD0128
:1030A000099580912D0390912E030E94021088E6CD
:1030B0000E94710570E060E080912D0390912E03D5
:1030C0000E946B1380912D0390912E03DC01ED91F2
:1030D000FC910190F081E02D60E0099580912D0335
:1030E00090912E030E94021088E60E9471056FE005
:1030F00070E080912D0390912E030E946B138091BC
:103100002D0390912E030E94021080912D03909127
:103110002E030E94CF1380912D0390912E03DC018A
:10312000ED91FC910284F385E02D0995C82F88E686
:103130000E9471056FE070E080912D0390912E0345
:103140000E946B1380912D0390912E036C2F6F774B
:10315000DC01ED91FC910190F081E02D09958091C9
:103160002D0390912E030E94021082E39AE1909326
:10317000820280938102DF91CF911F91FF90EF90A7
:10318000DF90CF90089580ED91E00E940D16E091C0
:103190001202F0E0ED5EFD4F808168E10E94822026
:1031A000892F90E00E94FA1587CD87ED91E00E946B
:1031B0000D16E0911202F0E0ED5EFD4F80816CE3B0
:1031C000EDCF80EE91E00E940D16E0911202F0E04A
:1031D000ED5EFD4F80816FE1E1CF85EE91E00E94D1
:1031E0000D16E0911202F0E0ED5EFD4F80816CE083
:1031F0000E9482202AE0929FC0011124865F9E4F88
:103200000E94A91580EC91E00E94A91555CD8CEE85
:1032100091E00E940D16E0911202F0E0ED5EFD4F8C
:10322000808164E6BBCF8C2F6D2F0E948220829517
:10323000807FC82FC90FF3CE0E947622FC018081C7
:103240009181009711F00C94302108950F931F93F2
:10325000CF93DF93EC0188819981009759F02A81FF
:103260003B812617370730F081E0DF91CF911F9126
:103270000F9108958B016F5F7F4F0E94B9210097D6
:1032800059F0998388831B830A832C813D81232BEA
:1032900059F7FC011082E8CF80E0E7CFEF92FF9270
:1032A0000F931F93CF93DF93EC017B018A01BA0147
:1032B0000E94261928813981811114C021153105F8
:1032C00019F0C9010E943021198218821D821C82C6
:1032D0001B821A82CE01DF91CF911F910F91FF9037
:1032E000EF9008951D830C83B701C9010E948B22C2
:1032F000F1CFEF92FF920F931F93CF93DF93CDB750
:10330000DEB729970FB6F894DEBF0FBECDBF8C0194
:10331000862FF80111821082138212821582148284
:103320004AE09E012F5F3F4F7901B90190E00E9472
:10333000FF1FF70101900020E9F73197AF014E1907
:103340005F09B701C8010E944E1929960FB6F8947B
:10335000DEBF0FBECDBFDF91CF911F910F91FF90C8
:10336000EF900895CF92DF92EF92FF920F931F9309
:10337000CF93DF93CDB7DEB72C970FB6F894DEBFAF
:103380000FBECDBF8C016A3008F069C0CE01079630
:103390000E9479191A8219821C821B821E821D8248
:1033A00041E050E065EF71E0CE0101960E944E19B8
:1033B000CF80D884C114D10409F444C0EB84FC84C8
:1033C000E114F104B1F08D819E81E80EF91EB70180
:1033D000CE0101960E9426198823A1F129813A8104
:1033E0008D819E81B601820F931F0E948B22FE82E7
:1033F000ED82F801118210821382128215821482EA
:1034000069817A816115710529F04D815E81C8015C
:103410000E944E19CE0101960E941E19CE010796F8
:103420000E941E19C8012C960FB6F894DEBF0FBE7D
:10343000CDBFDF91CF911F910F91FF90EF90DF9063
:10344000CF90089589819A81009711F00E943021D0
:103450001A8219821E821D821C821B82CACF0E9480
:103460007919E0CF0F931F93CF93DF9300D000D053
:1034700000D0CDB7DEB70E940F160DEE12E084E249
:1034800090E0F8019587848784E090E097878687AD
:1034900082E0848B858B0E944915682FCE010196AE
:1034A0000E94B2194D815E8169817A81C8010E94B2
:1034B0009306CE0101960E941E198AEE91E00E94A9
:1034C0000D160E941E15682FCE0101960E94B2199A
:1034D0004D815E8169817A81C8010E949306CE0187
:1034E00001960E941E1980EC91E00E94A91582E1CC
:1034F00090E0F8019587848788E190E09787868738
:1035000081E0848B858B0E94F314682F70E090E03B
:1035100080E04AE00E94B61582EF91E00E940D160D
:103520000E94C214FAE08F9FC0011124865F9E4F53
:103530000E940D1682EF91E00E940D1684EF91E03B
:103540000E940D160E949714682F70E090E080E0B2
:103550004AE00E94B61560E2C8010E945C0B0E941E
:10356000EE1126960FB6F894DEBF0FBECDBFDF91E9
:10357000CF911F910F91089585ED8093BC008091AC
:10358000B7029091B802A091B902B091BA02079621
:10359000A11DB11D23E0B695A795979587952A950E
:1035A000D1F72091BC0024FD03C01092B50208950C
:1035B0004091B7025091B8026091B9027091BA027D
:1035C000452B462B472B69F30097A105B10541F028
:1035D0002AE22A95F1F700C00197A109B109E1CFCC
:1035E0008091B6020C945C0F1F920F920FB60F924F
:1035F00011242F933F938F939F93AF93BF93809109
:10360000840290918502A0918602B0918702309148
:10361000830223E0230F2D3758F50196A11DB11D1C
:10362000209383028093840290938502A093860264
:10363000B09387028091880290918902A0918A02BA
:10364000B0918B020196A11DB11D809388029093C9
:103650008902A0938A02B0938B02BF91AF919F9190
:103660008F913F912F910F900FBE0F901F90189543
:1036700026E8230F0296A11DB11DD2CF1F920F92F3
:103680000FB60F9211242F933F934F935F936F9335
:103690007F938F939F93AF93BF93EF93FF93E091AB
:1036A0000201F09103010995FF91EF91BF91AF9154
:1036B0009F918F917F916F915F914F913F912F914A
:1036C0000F900FBE0F901F9018951F920F920FB67C
:1036D0000F9211242F933F934F935F936F937F9398
:1036E0008F939F93AF93BF93EF93FF93E09100016C
:1036F000F09101010995FF91EF91BF91AF919F91D9
:103700008F917F916F915F914F913F912F910F908A
:103710000FBE0F901F9018951F920F920FB60F9229
:1037200011242F933F934F935F936F937F938F93C6
:103730009F93AF93BF93EF93FF938091B900887FDE
:10374000803609F44AC0F0F5883209F4A7C018F5AC
:10375000803109F49BC0B8F4882309F4F9C088309B
:1037600009F494C0FF91EF91BF91AF919F918F9118
:103770007F916F915F914F913F912F910F900FBE6D
:103780000F901F901895883109F488C0803251F746
:103790008093B30214C0803409F49DC040F4803398
:1037A000B9F38833F9F68093B30285ECB0C0803565
:1037B00009F485C0883509F496C0883499F60E94CA
:1037C000BC1AD0CF883909F48CC038F5883729F075
:1037D00050F4883611F0803729F683E08093B502E3
:1037E00010927B0257C0883809F47BC0803919F0E9
:1037F000803809F0B7CF80917B02803208F071C029
:10380000E0917B0281E08E0F80937B028091BB0070
:10381000F0E0E55AFD4F80833DC0803B39F0E0F495
:10382000803A09F479C0883A09F09CCF84E080930B
:10383000B50210925A0210925902E0917F02F09163
:10384000800209958091590281110FC081E0809317
:1038500059021092390209C0803C09F4A6CF883C75
:1038600009F4A3CF883B09F07DCFE0915A0281E0B3
:103870008E0F80935A02F0E0E75CFD4F80818093C9
:10388000BB0090915A028091590229C08091B002E8
:103890008093BB0085EC8093BC0064CF9091B20212
:1038A0008091B102981758F5E091B20281E08E0F35
:1038B0008093B202F0E0E157FD4F8081E9CFE091C3
:1038C000B20281E08E0F8093B2028091BB00F0E0E3
:1038D000E157FD4F80839091B2028091B102981719
:1038E000C8F285E8D8CFE091B20281E08E0F8093D4
:1038F000B2028091BB00F0E0E157FD4F80838091E0
:10390000B40281115CCF81E08093AF0284EA80939E
:10391000BC001092B50226CF85EC8093BC001092BB
:10392000B50280917B02803230F4E0917B02F0E0BE
:10393000E55AFD4F108260917B0270E0E0917D02BC
:10394000F0917E028BE592E0099510927B020ACFFE
:103950001092B30234CFA1EEB2E013961C921E92E5
:10396000129748EE53E060E070E014964D935D933B
:103970006D937C93179786E891E011969C938E93B4
:10398000B0932E03A0932D03EDEEF2E0138212828A
:1039900020E830E03583248380E290E097838683BB
:1039A0003187208793878287168A15861486178623
:1039B000168681E0858B848B2FEF3FEF338B228B34
:1039C000318B208B878B108E128E118E88E991E0BF
:1039D00091838083148E138EB68FA58F10A2178EBD
:1039E0008FEF84A385A386A387A380A780E89AE1AD
:1039F000A6E0B0E085AB96ABA7ABB0AF80EA96E8A7
:103A0000A1E0B0E081AF92AFA3AFB4AF80E586AFE5
:103A100017AE0895789484B5826084BD84B58160C2
:103A200084BD85B5826085BD85B5816085BD809189
:103A30006E00816080936E00109281008091810001
:103A400082608093810080918100816080938100F9
:103A5000809180008160809380008091B1008460BB
:103A60008093B1008091B00081608093B00080911C
:103A70007A00846080937A0080917A0082608093DB
:103A80007A0080917A00816080937A0080917A0038
:103A9000806880937A001092C1001092BC0210924C
:103AA000BB021092DE021092DD020E943E0F80E9FE
:103AB00096E09093800280937F0281E996E0909354
:103AC0007E0280937D0280910C0390910D03892BDF
:103AD00011F52091F3023091F402C901079697FD88
:103AE0000796B3E095958795BA95E1F72091F10295
:103AF0003091F202AC01429FC001439F900D529F52
:103B0000900D11240E94942090930D0380930C0338
:103B1000892B09F464C20E940F162091F3023091A0
:103B2000F4028091F1029091F202B9012132310543
:103B30000CF44CC16054710977FF02C06F5F7F4F76
:103B4000759567958255910997FD019600E410E0FF
:103B500022E530E04AE657E0959587950E94080EE9
:103B600082E080930F0380910A0390910B03892BCD
:103B700009F43FC18CE380930E031092BC021092B3
:103B8000BB021092DE021092DD020E943E0F80E91D
:103B900096E09093800280937F0281E996E0909373
:103BA0007E0280937D028091150387FD1EC061E037
:103BB0000E94FC0561E0809115030E94CE0561E042
:103BC00070E080E090E00E94520660E08091150372
:103BD0000E94CE056AE070E080E090E00E9452060C
:103BE00061E0809115030E94CE0580910A039091B7
:103BF0000B03892B09F4BCC12091220330912303CC
:103C0000409124035091250360E074E284EF90E03A
:103C10000E942920205131094109510956954795A3
:103C2000379527952093B80064E086E895E00E94D8
:103C3000E9106091F30261508DEE92E00E949111C3
:103C400064E082E895E00E94E91080910F0364E14E
:103C5000813009F460E18DEE92E00E94911164E000
:103C60008EE795E00E94E9108FE880932A03809107
:103C7000F1029091F2028038910509F092C1809191
:103C8000F3029091F4028034910509F09AC1809179
:103C90000F03813009F483C18FEC80932A03C2E1C2
:103CA0006AED8DEE92E00E9491116C2F8DEE92E004
:103CB0000E94911161E88DEE92E00E949111609155
:103CC0002A038DEE92E00E94911169ED8DEE92E053
:103CD0000E94911180910F0361EF813009F462E23B
:103CE0008DEE92E00E94911166E088E795E00E94D7
:103CF000E91080910A0390910B03892B09F465C1A7
:103D000020912603309127034091280350912903E5
:103D100060E074E284EF90E00E9429202051310994
:103D20004109510956954795379527952093B80035
:103D30000E940F161092FA021092F9021092FC02E1
:103D40001092FB0282E0809301038093020381E0E2
:103D500090E0909300038093FF029093FE02809383
:103D6000FD028093050387EF91E00E940D160E94EB
:103D7000EE1162E082E00E94FC0562E083E00E94B6
:103D8000FC0582E793E1909301018093000180910B
:103D900069008C7F816080936900E89A6CED75E022
:103DA00080E090E00E94520682E39AE190938202C2
:103DB00080938102C0E0D0E0E0918102F091820224
:103DC00009952097C9F30E940000F6CF605271094F
:103DD00077FF02C06F5F7F4F759567958357910995
:103DE00097FD019600E210E023E730E04AE855E055
:103DF000B3CE61E0809113030E94FC0561E08091E5
:103E000014030E94FC0580911303082E000C990BEB
:103E1000FC01E85BF54FE491F0E0EE0FFF1FEC5C76
:103E2000F54F2591349130931B0320931A03FC0125
:103E3000E45AF54FE491E093200380911403082E97
:103E4000000C990BFC01E85BF54FE491F0E0EE0FFC
:103E5000FF1FEC5CF54FA591B491B0931D03A093A7
:103E60001C03FC01E45AF54FE491E09321038C918B
:103E7000E82BEC938091080390910903892B09F4B6
:103E800034C0CFB7F89480917C02811127C0E2E55D
:103E9000FAE08491E6E6FAE09491E82FF0E0EE0F84
:103EA000FF1FE65DF54FA591B491EC91E92321F454
:103EB00061E08AE00E94CE0561E08AE00E94FC0594
:103EC0008CB580618CBD8CB580648CBD61E08DE06B
:103ED0000E94FC0561E08BE00E94FC0580917C0261
:103EE0008F5F80937C02CFBF5ECE61E08091110333
:103EF0000E94FC0561E0809112030E94FC05809104
:103F00001103082E000C990BFC01E85BF54FE491BE
:103F1000F0E0EE0FFF1FEC5CF54F259134913093EC
:103F2000170320931603FC01E45AF54FE491E09344
:103F30001E0380911203082E000C990BFC01E85B14
:103F4000F54FE491F0E0EE0FFF1FEC5CF54FA5910B
:103F5000B491B0931903A0931803FC01E45AF54FF0
:103F6000E491E0931F038C91E095E823EC931BCE42
:103F70008091080390910903892B31F080912B03E4
:103F800090912C030E941E09E0911C03F0911D03E7
:103F900090818091210380958923808345CE8FE98C
:103FA0007CCE8036910569F48091F3029091F40201
:103FB000409739F480910F03813029F08FEA809384
:103FC0002A03C2E06DCE80E1FACFE0911C03F091AC
:103FD0001D03808190912103892B8083A9CEFFCF7F
:103FE00088E991E09093EE028093ED0280910C03BA
:103FF00090910D03009711F00C9430210895BB2788
:10400000FB015527AA27880F991FAA1FA41710F094
:10401000A41B83955051B9F7A05DAA3308F0A95DA0
:10402000A193009779F7B111B1931192CB010C9440
:104030001920DC01FC01672F71917723E1F732979A
:1040400004C07C916D9370836291AE17BF07C8F373
:104050000895A1E21A2EAA1BBB1BFD010DC0AA1FC9
:10406000BB1FEE1FFF1FA217B307E407F50720F0E1
:10407000A21BB30BE40BF50B661F771F881F991F5C
:104080001A9469F760957095809590959B01AC01A5
:10409000BD01CF0108952F923F924F925F926F9290
:1040A0007F928F929F92AF92BF92CF92DF92EF92C8
:1040B000FF920F931F93CF93DF93CDB7DEB7CA1B49
:1040C000DB0B0FB6F894DEBF0FBECDBF09942A8874
:1040D000398848885F846E847D848C849B84AA841C
:1040E000B984C884DF80EE80FD800C811B81AA81A9
:1040F000B981CE0FD11D0FB6F894DEBF0FBECDBF74
:10410000ED010895991B79E004C0991F961708F0F6
:10411000961B881F7A95C9F780950895EE0FFF1FAB
:104120000590F491E02D09940F931F93CF93DF93A3
:104130008230910510F482E090E0E0913103F0913B
:10414000320330E020E0B0E0A0E0309799F4211590
:10415000310509F44AC0281B390B24303105D8F544
:104160008A819B816115710589F1FB0193838283AB
:10417000FE0111C040815181028113814817590706
:10418000E0F04817590799F4109761F012960C93D4
:10419000129713961C933296CF01DF91CF911F9106
:1041A0000F9108950093310310933203F4CF21153A
:1041B000310551F04217530738F0A901DB019A018C
:1041C000BD01DF01F801C1CFEF01F9CF90933203B8
:1041D00080933103CDCFFE01E20FF31F81939193C2
:1041E0002250310939832883D7CF20912F03309172
:1041F0003003232B41F420910601309107013093C5
:10420000300320932F0320910401309105012115E3
:10421000310541F42DB73EB7409108015091090195
:10422000241B350BE0912F03F0913003E217F307C5
:10423000A0F42E1B3F0B2817390778F0AC014E5F16
:104240005F4F2417350748F04E0F5F1F5093300320
:1042500040932F03819391939FCFF0E0E0E09CCFB8
:10426000CF93DF930097E9F0FC013297138212821B
:10427000A0913103B0913203ED0130E020E01097BE
:10428000A1F420813181820F931F20912F0330915F
:1042900030032817390709F061C0F0933003E09329
:1042A0002F03DF91CF910895EA01CE17DF07E8F5DC
:1042B0004A815B819E0141155105B1F7E901FB83FC
:1042C000EA8349915991C40FD51FEC17FD0761F49A
:1042D000808191810296840F951FE90199838883DB
:1042E000828193819B838A83F0E0E0E012968D9136
:1042F0009C9113970097B9F52D913C911197CD01A1
:104300000296820F931F20912F03309130032817BC
:10431000390739F6309751F5109232031092310374
:10432000B0933003A0932F03BCCFD383C2834081CB
:104330005181840F951FC817D90761F44E5F5F4FF5
:1043400088819981480F591F518340838A819B81BD
:10435000938382832115310509F0B0CFF0933203A6
:10436000E09331039ECFFD01DC01C0CF13821282A6
:10437000D7CFB0E0A0E0EFEBF1E20C944D208C0140
:10438000009751F4CB010E9494208C01C801CDB755
:10439000DEB7E0E10C946920FC01E60FF71F9C01F9
:1043A00022503109E217F30708F49DC0D901CD91DD
:1043B000DC911197C617D70798F0C530D10530F3B7
:1043C000CE0104978617970708F3C61BD70B2297D1
:1043D000C193D1936D937C93CF010E943021D6CFAE
:1043E0005B01AC1ABD0A4C018C0E9D1EA0913103DD
:1043F000B0913203512C412CF12CE12C109731F566
:1044000080912F03909130038815990509F05CC0C5
:104410004616570608F058C0809104019091050196
:10442000009741F48DB79EB7409108015091090162
:10443000841B950BE817F90708F055C0F09330037B
:10444000E0932F03F90171836083A0CF8D919C913C
:10445000119712966C90129713967C901397A8154B
:10446000B90559F56C0142E0C40ED11CCA14DB0435
:1044700020F1AC014A195B09DA011296159780F018
:104480006282738251834083D9016D937C93E114DE
:10449000F10471F0D7011396FC93EE93129776CF47
:1044A00022968C0F9D1FF90191838083F301EFCF3A
:1044B000F0933203E093310369CF4816590608F4AC
:1044C0002C017D01D3019ACFCB010E9494207C0165
:1044D000009749F0AE01B8010E947B22C8010E94FA
:1044E0003021870153CF10E000E050CF81E090E011
:1044F000F8940C949222FB01DC0102C001900D9211
:1045000041505040D8F70895DC0101C06D934150EF
:104510005040E0F70895FB01DC0101900D9200206E
:10452000E1F7089515E0C6E4D5E004C0FE010E945D
:0E4530008E202196C734D107C9F7F894FFCF2B
:10453E00920692060000330380004A616E75617226
:10454E0079000000466562727561727900004D61F6
:10455E007263680000000000417072696C00000018
:10456E0000004D6179000000000000004A756E6584
:10457E000000000000004A756C7900000000000089
:10458E004167757374000000000053657074656DAB
:10459E00657200004F63746F6265720000004E6FAB
:1045AE0076656D6265720000446563656D62657265
:1045BE00000000000000D30FA60F68137B059F0FAD
:1045CE008C0F7D0F000000005C0B93066813160F16
:1045DE0067087B05010ED90DF50DE90D690E7B05FA
:1045EE0022091213D7072008220D050D8D0C2E0C53
:1045FE000D0A00536574696E6773206D6F646500F4
:10460E00486F7572733A004D696E757465733A0032
:10461E004461793A004D6F6E74683A005965617263
:10462E003A00200032300043726561746564206286
:0C463E0079204D34726368795F530000EE
:00000001FF
